{
  "contractName": "TicTakToeFactory",
  "abi": [
    {
      "anonymous": false,
      "inputs": [
        {
          "indexed": true,
          "internalType": "address",
          "name": "creator",
          "type": "address"
        },
        {
          "indexed": true,
          "internalType": "address",
          "name": "gameAddress",
          "type": "address"
        },
        {
          "indexed": false,
          "internalType": "uint256",
          "name": "gameID",
          "type": "uint256"
        }
      ],
      "name": "NewGame",
      "type": "event"
    },
    {
      "inputs": [
        {
          "internalType": "uint256",
          "name": "",
          "type": "uint256"
        }
      ],
      "name": "directory",
      "outputs": [
        {
          "internalType": "address",
          "name": "gameAddress",
          "type": "address"
        },
        {
          "internalType": "address",
          "name": "creator",
          "type": "address"
        },
        {
          "internalType": "enum TicTakToeFactory.State",
          "name": "gameState",
          "type": "uint8"
        }
      ],
      "stateMutability": "view",
      "type": "function"
    },
    {
      "inputs": [],
      "name": "numGames",
      "outputs": [
        {
          "internalType": "uint256",
          "name": "",
          "type": "uint256"
        }
      ],
      "stateMutability": "view",
      "type": "function"
    },
    {
      "inputs": [
        {
          "internalType": "address",
          "name": "_toChallenge",
          "type": "address"
        }
      ],
      "name": "createGame",
      "outputs": [],
      "stateMutability": "nonpayable",
      "type": "function"
    },
    {
      "inputs": [
        {
          "internalType": "uint256",
          "name": "_gameID",
          "type": "uint256"
        },
        {
          "internalType": "enum TicTakToeFactory.State",
          "name": "_newState",
          "type": "uint8"
        }
      ],
      "name": "setGameState",
      "outputs": [],
      "stateMutability": "nonpayable",
      "type": "function"
    }
  ],
  "bytecode": "0x608060405234801561001057600080fd5b50612a31806100206000396000f3fe60806040523480156200001157600080fd5b5060043610620000525760003560e01c8063393e6e891462000057578063474d0b5a14620000775780637d611a261462000097578063c3f010f714620000cf575b600080fd5b6200007560048036038101906200006f91906200054c565b620000f1565b005b6200009560048036038101906200008f9190620005f8565b620001db565b005b620000b56004803603810190620000af91906200062a565b62000459565b604051620000c693929190620006ed565b60405180910390f35b620000d9620004d0565b604051620000e891906200073b565b60405180910390f35b60008083815260200190815260200160002060000160009054906101000a900473ffffffffffffffffffffffffffffffffffffffff1673ffffffffffffffffffffffffffffffffffffffff163373ffffffffffffffffffffffffffffffffffffffff161462000197576040517f08c379a00000000000000000000000000000000000000000000000000000000081526004016200018e90620007df565b60405180910390fd5b8060008084815260200190815260200160002060010160146101000a81548160ff02191690836002811115620001d257620001d16200066d565b5b02179055505050565b8073ffffffffffffffffffffffffffffffffffffffff163373ffffffffffffffffffffffffffffffffffffffff1614156200024d576040517f08c379a0000000000000000000000000000000000000000000000000000000008152600401620002449062000851565b60405180910390fd5b600033826001546040516200026290620004d6565b620002709392919062000873565b604051809103906000f0801580156200028d573d6000803e3d6000fd5b50905060405180606001604052808273ffffffffffffffffffffffffffffffffffffffff1681526020013373ffffffffffffffffffffffffffffffffffffffff16815260200160006002811115620002ea57620002e96200066d565b5b815250600080600154815260200190815260200160002060008201518160000160006101000a81548173ffffffffffffffffffffffffffffffffffffffff021916908373ffffffffffffffffffffffffffffffffffffffff16021790555060208201518160010160006101000a81548173ffffffffffffffffffffffffffffffffffffffff021916908373ffffffffffffffffffffffffffffffffffffffff16021790555060408201518160010160146101000a81548160ff02191690836002811115620003bd57620003bc6200066d565b5b021790555090505060016000815480929190620003da90620008df565b91905055508073ffffffffffffffffffffffffffffffffffffffff163373ffffffffffffffffffffffffffffffffffffffff167fc4490dfb76823bf820ad165c61a9db7902f1074fbe5954bbffac953275678dd7600180546200043e91906200092d565b6040516200044d91906200073b565b60405180910390a35050565b60006020528060005260406000206000915090508060000160009054906101000a900473ffffffffffffffffffffffffffffffffffffffff16908060010160009054906101000a900473ffffffffffffffffffffffffffffffffffffffff16908060010160149054906101000a900460ff16905083565b60015481565b612093806200096983390190565b600080fd5b6000819050919050565b620004fe81620004e9565b81146200050a57600080fd5b50565b6000813590506200051e81620004f3565b92915050565b600381106200053257600080fd5b50565b600081359050620005468162000524565b92915050565b60008060408385031215620005665762000565620004e4565b5b600062000576858286016200050d565b9250506020620005898582860162000535565b9150509250929050565b600073ffffffffffffffffffffffffffffffffffffffff82169050919050565b6000620005c08262000593565b9050919050565b620005d281620005b3565b8114620005de57600080fd5b50565b600081359050620005f281620005c7565b92915050565b600060208284031215620006115762000610620004e4565b5b60006200062184828501620005e1565b91505092915050565b600060208284031215620006435762000642620004e4565b5b600062000653848285016200050d565b91505092915050565b6200066781620005b3565b82525050565b7f4e487b7100000000000000000000000000000000000000000000000000000000600052602160045260246000fd5b60038110620006b057620006af6200066d565b5b50565b6000819050620006c3826200069c565b919050565b6000620006d582620006b3565b9050919050565b620006e781620006c8565b82525050565b60006060820190506200070460008301866200065c565b6200071360208301856200065c565b620007226040830184620006dc565b949350505050565b6200073581620004e9565b82525050565b60006020820190506200075260008301846200072a565b92915050565b600082825260208201905092915050565b7f4f6e6c792067616d6520697473656c662063616e20757064617465206974732060008201527f7374617465000000000000000000000000000000000000000000000000000000602082015250565b6000620007c760258362000758565b9150620007d48262000769565b604082019050919050565b60006020820190508181036000830152620007fa81620007b8565b9050919050565b7f596f752063616e6e6f74206368616c6c656e676520796f757273656c66000000600082015250565b600062000839601d8362000758565b9150620008468262000801565b602082019050919050565b600060208201905081810360008301526200086c816200082a565b9050919050565b60006060820190506200088a60008301866200065c565b6200089960208301856200065c565b620008a860408301846200072a565b949350505050565b7f4e487b7100000000000000000000000000000000000000000000000000000000600052601160045260246000fd5b6000620008ec82620004e9565b91507fffffffffffffffffffffffffffffffffffffffffffffffffffffffffffffffff821415620009225762000921620008b0565b5b600182019050919050565b60006200093a82620004e9565b91506200094783620004e9565b9250828210156200095d576200095c620008b0565b5b82820390509291505056fe60c06040523480156200001157600080fd5b50604051620020933803806200209383398181016040528101906200003791906200022a565b80608081815250503373ffffffffffffffffffffffffffffffffffffffff1660a08173ffffffffffffffffffffffffffffffffffffffff168152505082600060016101000a81548173ffffffffffffffffffffffffffffffffffffffff021916908373ffffffffffffffffffffffffffffffffffffffff16021790555081600160006101000a81548173ffffffffffffffffffffffffffffffffffffffff021916908373ffffffffffffffffffffffffffffffffffffffff16021790555060008060006101000a81548160ff021916908360028111156200011d576200011c62000286565b5b02179055508173ffffffffffffffffffffffffffffffffffffffff168373ffffffffffffffffffffffffffffffffffffffff167fa7f319d32ea1111130a0941caa632eb49779c9ca37820ae07e85f9f0ebbb51c860405160405180910390a3505050620002b5565b600080fd5b600073ffffffffffffffffffffffffffffffffffffffff82169050919050565b6000620001b7826200018a565b9050919050565b620001c981620001aa565b8114620001d557600080fd5b50565b600081519050620001e981620001be565b92915050565b6000819050919050565b6200020481620001ef565b81146200021057600080fd5b50565b6000815190506200022481620001f9565b92915050565b60008060006060848603121562000246576200024562000185565b5b60006200025686828701620001d8565b93505060206200026986828701620001d8565b92505060406200027c8682870162000213565b9150509250925092565b7f4e487b7100000000000000000000000000000000000000000000000000000000600052602160045260246000fd5b60805160a051611d8e62000305600039600081816108800152818161097801528181610b4101526111160152600081816108bc015281816109b401528181610dbe01526111520152611d8e6000f3fe608060405234801561001057600080fd5b50600436106100b45760003560e01c8063ba8f73e211610071578063ba8f73e214610169578063bbb4d3e914610187578063c19d93fb14610191578063d30895e4146101af578063dd503634146101cd578063dfbf53ae146101eb576100b4565b806302d05d3f146100b95780630867408f146100d75780632dd31000146100f35780635458b2311461011157806359a5f12d1461012d578063b3cea2171461014b575b600080fd5b6100c1610209565b6040516100ce919061137a565b60405180910390f35b6100f160048036038101906100ec91906113d0565b61022f565b005b6100fb610b3f565b604051610108919061137a565b60405180910390f35b61012b6004803603810190610126919061143c565b610b63565b005b610135610d96565b604051610142919061137a565b60405180910390f35b610153610dbc565b6040516101609190611478565b60405180910390f35b610171610de0565b60405161017e91906114af565b60405180910390f35b61018f610df3565b005b61019961122a565b6040516101a69190611541565b60405180910390f35b6101b761123b565b6040516101c4919061137a565b60405180910390f35b6101d5611261565b6040516101e2919061137a565b60405180910390f35b6101f3611287565b604051610200919061137a565b60405180910390f35b600060019054906101000a900473ffffffffffffffffffffffffffffffffffffffff1681565b60016002811115610243576102426114ca565b5b60008054906101000a900460ff166002811115610263576102626114ca565b5b146102a3576040517f08c379a000000000000000000000000000000000000000000000000000000000815260040161029a906115df565b60405180910390fd5b600060019054906101000a900473ffffffffffffffffffffffffffffffffffffffff1673ffffffffffffffffffffffffffffffffffffffff163373ffffffffffffffffffffffffffffffffffffffff16148061034c5750600160009054906101000a900473ffffffffffffffffffffffffffffffffffffffff1673ffffffffffffffffffffffffffffffffffffffff163373ffffffffffffffffffffffffffffffffffffffff16145b61038b576040517f08c379a00000000000000000000000000000000000000000000000000000000081526004016103829061164b565b60405180910390fd5b6002821115801561039d575060028111155b6103dc576040517f08c379a00000000000000000000000000000000000000000000000000000000081526004016103d3906116b7565b60405180910390fd5b6000600483600381106103f2576103f16116d7565b5b600302018260038110610408576104076116d7565b5b01541461044a576040517f08c379a000000000000000000000000000000000000000000000000000000000815260040161044190611752565b60405180910390fd5b600260009054906101000a900473ffffffffffffffffffffffffffffffffffffffff1673ffffffffffffffffffffffffffffffffffffffff163373ffffffffffffffffffffffffffffffffffffffff1614156106375760006002600e60009054906101000a900460ff166104be91906117a1565b60ff161415610502576040517f08c379a00000000000000000000000000000000000000000000000000000000081526004016104f99061181e565b60405180910390fd5b600160048360038110610518576105176116d7565b5b60030201826003811061052e5761052d6116d7565b5b0181905550600d6000838152602001908152602001600020600081548092919061055790611877565b9190505550600d600060038361056d91906118c0565b8152602001908152602001600020600081548092919061058c90611877565b9190505550808214156105c457600d60006006815260200190815260200160002060008154809291906105be90611877565b91905055505b6000821480156105d45750600281145b806105eb57506001821480156105ea5750600181145b5b8061060257506002821480156106015750600081145b5b1561063257600d600060078152602001908152602001600020600081548092919061062c90611877565b91905055505b6107c9565b60006002600e60009054906101000a900460ff1661065591906117a1565b60ff1614610698576040517f08c379a000000000000000000000000000000000000000000000000000000000815260040161068f9061181e565b60405180910390fd5b6002600483600381106106ae576106ad6116d7565b5b6003020182600381106106c4576106c36116d7565b5b0181905550600d600083815260200190815260200160002060008154809291906106ed90611916565b9190505550600d600060038361070391906118c0565b8152602001908152602001600020600081548092919061072290611916565b91905055508082141561075a57600d600060068152602001908152602001600020600081548092919061075490611916565b91905055505b60008214801561076a5750600281145b8061078157506001821480156107805750600181145b5b8061079857506002821480156107975750600081145b5b156107c857600d60006007815260200190815260200160002060008154809291906107c290611916565b91905055505b5b600e600081819054906101000a900460ff16809291906107e89061195f565b91906101000a81548160ff021916908360ff16021790555050600061080b6112ad565b905080156109315733600e60016101000a81548173ffffffffffffffffffffffffffffffffffffffff021916908373ffffffffffffffffffffffffffffffffffffffff16021790555060026000806101000a81548160ff02191690836002811115610879576108786114ca565b5b02179055507f000000000000000000000000000000000000000000000000000000000000000073ffffffffffffffffffffffffffffffffffffffff1663393e6e897f000000000000000000000000000000000000000000000000000000000000000060026040518363ffffffff1660e01b81526004016108fa9291906119d1565b600060405180830381600087803b15801561091457600080fd5b505af1158015610928573d6000803e3d6000fd5b50505050610a26565b6009600e60009054906101000a900460ff1660ff161415610a255760026000806101000a81548160ff02191690836002811115610971576109706114ca565b5b02179055507f000000000000000000000000000000000000000000000000000000000000000073ffffffffffffffffffffffffffffffffffffffff1663393e6e897f000000000000000000000000000000000000000000000000000000000000000060026040518363ffffffff1660e01b81526004016109f29291906119d1565b600060405180830381600087803b158015610a0c57600080fd5b505af1158015610a20573d6000803e3d6000fd5b505050505b5b600e60009054906101000a900460ff1660ff163373ffffffffffffffffffffffffffffffffffffffff167f497812b01ff165a007aa81c3114dcf1a845c6600e7f4a77140fd40b3fecc4c5e8585604051610a819291906119fa565b60405180910390a38015610af1573373ffffffffffffffffffffffffffffffffffffffff167f6747c18256028de8cd2fa276e75d6b4193ac34c1b55fa8e71797ac132d32ad39600e60009054906101000a900460ff16604051610ae49190611a5e565b60405180910390a2610b3a565b6009600e60009054906101000a900460ff1660ff161415610b39577fd4e78272079f47a2dd45d8f7092ff3a44f8abfcaeb43c35f8f96e14d610dc8fc60405160405180910390a15b5b505050565b7f000000000000000000000000000000000000000000000000000000000000000081565b60006002811115610b7757610b766114ca565b5b60008054906101000a900460ff166002811115610b9757610b966114ca565b5b14610bd7576040517f08c379a0000000000000000000000000000000000000000000000000000000008152600401610bce90611aeb565b60405180910390fd5b600060019054906101000a900473ffffffffffffffffffffffffffffffffffffffff1673ffffffffffffffffffffffffffffffffffffffff163373ffffffffffffffffffffffffffffffffffffffff1614610c67576040517f08c379a0000000000000000000000000000000000000000000000000000000008152600401610c5e90611b7d565b60405180910390fd5b8073ffffffffffffffffffffffffffffffffffffffff16600160009054906101000a900473ffffffffffffffffffffffffffffffffffffffff1673ffffffffffffffffffffffffffffffffffffffff161415610cf8576040517f08c379a0000000000000000000000000000000000000000000000000000000008152600401610cef90611be9565b60405180910390fd5b80600160006101000a81548173ffffffffffffffffffffffffffffffffffffffff021916908373ffffffffffffffffffffffffffffffffffffffff1602179055508073ffffffffffffffffffffffffffffffffffffffff163373ffffffffffffffffffffffffffffffffffffffff167fa7f319d32ea1111130a0941caa632eb49779c9ca37820ae07e85f9f0ebbb51c860405160405180910390a350565b600360009054906101000a900473ffffffffffffffffffffffffffffffffffffffff1681565b7f000000000000000000000000000000000000000000000000000000000000000081565b600e60009054906101000a900460ff1681565b60006002811115610e0757610e066114ca565b5b60008054906101000a900460ff166002811115610e2757610e266114ca565b5b14610e67576040517f08c379a0000000000000000000000000000000000000000000000000000000008152600401610e5e90611aeb565b60405180910390fd5b600160009054906101000a900473ffffffffffffffffffffffffffffffffffffffff1673ffffffffffffffffffffffffffffffffffffffff163373ffffffffffffffffffffffffffffffffffffffff1614610ef7576040517f08c379a0000000000000000000000000000000000000000000000000000000008152600401610eee90611c7b565b60405180910390fd5b60008060019054906101000a900473ffffffffffffffffffffffffffffffffffffffff1633604051602001610f2d929190611ce3565b6040516020818303038152906040528051906020012060001c905060ff81901c9050600081141561102357600060019054906101000a900473ffffffffffffffffffffffffffffffffffffffff16600260006101000a81548173ffffffffffffffffffffffffffffffffffffffff021916908373ffffffffffffffffffffffffffffffffffffffff160217905550600160009054906101000a900473ffffffffffffffffffffffffffffffffffffffff16600360006101000a81548173ffffffffffffffffffffffffffffffffffffffff021916908373ffffffffffffffffffffffffffffffffffffffff1602179055506110ea565b600160009054906101000a900473ffffffffffffffffffffffffffffffffffffffff16600260006101000a81548173ffffffffffffffffffffffffffffffffffffffff021916908373ffffffffffffffffffffffffffffffffffffffff160217905550600060019054906101000a900473ffffffffffffffffffffffffffffffffffffffff16600360006101000a81548173ffffffffffffffffffffffffffffffffffffffff021916908373ffffffffffffffffffffffffffffffffffffffff1602179055505b60016000806101000a81548160ff0219169083600281111561110f5761110e6114ca565b5b02179055507f000000000000000000000000000000000000000000000000000000000000000073ffffffffffffffffffffffffffffffffffffffff1663393e6e897f000000000000000000000000000000000000000000000000000000000000000060016040518363ffffffff1660e01b81526004016111909291906119d1565b600060405180830381600087803b1580156111aa57600080fd5b505af11580156111be573d6000803e3d6000fd5b50505050600160009054906101000a900473ffffffffffffffffffffffffffffffffffffffff1673ffffffffffffffffffffffffffffffffffffffff167f9015e4f6466f7637abde08c3b1c9b84a9763d208f3425df33103ee21ab28480160405160405180910390a250565b60008054906101000a900460ff1681565b600260009054906101000a900473ffffffffffffffffffffffffffffffffffffffff1681565b600160009054906101000a900473ffffffffffffffffffffffffffffffffffffffff1681565b600e60019054906101000a900473ffffffffffffffffffffffffffffffffffffffff1681565b6000805b6008811015611330576003600d600083815260200190815260200160002054148061130e57507ffffffffffffffffffffffffffffffffffffffffffffffffffffffffffffffffd600d600083815260200190815260200160002054145b1561131d576001915050611336565b808061132890611d0f565b9150506112b1565b50600090505b90565b600073ffffffffffffffffffffffffffffffffffffffff82169050919050565b600061136482611339565b9050919050565b61137481611359565b82525050565b600060208201905061138f600083018461136b565b92915050565b600080fd5b6000819050919050565b6113ad8161139a565b81146113b857600080fd5b50565b6000813590506113ca816113a4565b92915050565b600080604083850312156113e7576113e6611395565b5b60006113f5858286016113bb565b9250506020611406858286016113bb565b9150509250929050565b61141981611359565b811461142457600080fd5b50565b60008135905061143681611410565b92915050565b60006020828403121561145257611451611395565b5b600061146084828501611427565b91505092915050565b6114728161139a565b82525050565b600060208201905061148d6000830184611469565b92915050565b600060ff82169050919050565b6114a981611493565b82525050565b60006020820190506114c460008301846114a0565b92915050565b7f4e487b7100000000000000000000000000000000000000000000000000000000600052602160045260246000fd5b6003811061150a576115096114ca565b5b50565b600081905061151b826114f9565b919050565b600061152b8261150d565b9050919050565b61153b81611520565b82525050565b60006020820190506115566000830184611532565b92915050565b600082825260208201905092915050565b7f47616d65206d7573742062652061637469766520746f20706572666f726d207460008201527f68697320616374696f6e00000000000000000000000000000000000000000000602082015250565b60006115c9602a8361155c565b91506115d48261156d565b604082019050919050565b600060208201905081810360008301526115f8816115bc565b9050919050565b7f496e76616c696420706c61796572000000000000000000000000000000000000600082015250565b6000611635600e8361155c565b9150611640826115ff565b602082019050919050565b6000602082019050818103600083015261166481611628565b9050919050565b7f496e76616c696420706f736974696f6e00000000000000000000000000000000600082015250565b60006116a160108361155c565b91506116ac8261166b565b602082019050919050565b600060208201905081810360008301526116d081611694565b9050919050565b7f4e487b7100000000000000000000000000000000000000000000000000000000600052603260045260246000fd5b7f506f736974696f6e206e6f7420656d7074790000000000000000000000000000600082015250565b600061173c60128361155c565b915061174782611706565b602082019050919050565b6000602082019050818103600083015261176b8161172f565b9050919050565b7f4e487b7100000000000000000000000000000000000000000000000000000000600052601260045260246000fd5b60006117ac82611493565b91506117b783611493565b9250826117c7576117c6611772565b5b828206905092915050565b7f4e6f7420796f7572207475726e00000000000000000000000000000000000000600082015250565b6000611808600d8361155c565b9150611813826117d2565b602082019050919050565b60006020820190508181036000830152611837816117fb565b9050919050565b7f4e487b7100000000000000000000000000000000000000000000000000000000600052601160045260246000fd5b6000819050919050565b60006118828261186d565b91507f7fffffffffffffffffffffffffffffffffffffffffffffffffffffffffffffff8214156118b5576118b461183e565b5b600182019050919050565b60006118cb8261139a565b91506118d68361139a565b9250827fffffffffffffffffffffffffffffffffffffffffffffffffffffffffffffffff0382111561190b5761190a61183e565b5b828201905092915050565b60006119218261186d565b91507f80000000000000000000000000000000000000000000000000000000000000008214156119545761195361183e565b5b600182039050919050565b600061196a82611493565b915060ff82141561197e5761197d61183e565b5b600182019050919050565b6003811061199a576119996114ca565b5b50565b60008190506119ab82611989565b919050565b60006119bb8261199d565b9050919050565b6119cb816119b0565b82525050565b60006040820190506119e66000830185611469565b6119f360208301846119c2565b9392505050565b6000604082019050611a0f6000830185611469565b611a1c6020830184611469565b9392505050565b6000819050919050565b6000611a48611a43611a3e84611493565b611a23565b61139a565b9050919050565b611a5881611a2d565b82525050565b6000602082019050611a736000830184611a4f565b92915050565b7f47616d65206d757374206265206f70656e20746f20706572666f726d2074686960008201527f7320616374696f6e000000000000000000000000000000000000000000000000602082015250565b6000611ad560288361155c565b9150611ae082611a79565b604082019050919050565b60006020820190508181036000830152611b0481611ac8565b9050919050565b7f4f6e6c792063726561746f722063616e206368616e676520696e76697465206160008201527f6464726573730000000000000000000000000000000000000000000000000000602082015250565b6000611b6760268361155c565b9150611b7282611b0b565b604082019050919050565b60006020820190508181036000830152611b9681611b5a565b9050919050565b7f506c617965722068617320616c7265616479206265656e20696e766974656400600082015250565b6000611bd3601f8361155c565b9150611bde82611b9d565b602082019050919050565b60006020820190508181036000830152611c0281611bc6565b9050919050565b7f596f752068617665206e6f74206265656e20696e766974656420746f206a6f6960008201527f6e20746869732067616d65000000000000000000000000000000000000000000602082015250565b6000611c65602b8361155c565b9150611c7082611c09565b604082019050919050565b60006020820190508181036000830152611c9481611c58565b9050919050565b60008160601b9050919050565b6000611cb382611c9b565b9050919050565b6000611cc582611ca8565b9050919050565b611cdd611cd882611359565b611cba565b82525050565b6000611cef8285611ccc565b601482019150611cff8284611ccc565b6014820191508190509392505050565b6000611d1a8261139a565b91507fffffffffffffffffffffffffffffffffffffffffffffffffffffffffffffffff821415611d4d57611d4c61183e565b5b60018201905091905056fea26469706673582212205c04fa383579b0014378e2c5475120122f8948801608c3a75f3e026c7e5d9e0764736f6c634300080c0033a2646970667358221220822cc0ca8d7167c2ade1e27bb699eda031d14d4aa2d6a059e8390d5b18e9956e64736f6c634300080c0033",
  "immutableReferences": {},
  "source": "pragma solidity ^0.8.0;\r\n\r\ncontract TicTakToeFactory {\r\n    enum State {\r\n        OPEN,\r\n        ACTIVE,\r\n        CLOSED\r\n    }\r\n    struct Game {\r\n        address gameAddress;\r\n        address creator;\r\n        State gameState;\r\n    }\r\n    mapping(uint256 => Game) public directory;\r\n    uint256 public numGames;\r\n\r\n    event NewGame(\r\n        address indexed creator,\r\n        address indexed gameAddress,\r\n        uint256 gameID\r\n    );\r\n\r\n    function createGame(address _toChallenge) external {\r\n        require(msg.sender != _toChallenge, \"You cannot challenge yourself\");\r\n        address createdAddress = address(\r\n            new TicTakToeGame(msg.sender, _toChallenge, numGames)\r\n        );\r\n        directory[numGames] = Game(createdAddress, msg.sender, State.OPEN);\r\n        numGames++;\r\n\r\n        emit NewGame(msg.sender, createdAddress, numGames - 1);\r\n    }\r\n\r\n    function setGameState(uint256 _gameID, State _newState) external {\r\n        require(\r\n            msg.sender == directory[_gameID].gameAddress,\r\n            \"Only game itself can update its state\"\r\n        );\r\n\r\n        directory[_gameID].gameState = _newState;\r\n    }\r\n}\r\n\r\ncontract TicTakToeGame {\r\n    uint256 public immutable ID;\r\n    address public immutable FACTORY;\r\n    enum State {\r\n        OPEN,\r\n        ACTIVE,\r\n        CLOSED\r\n    }\r\n    State public state;\r\n\r\n    address public creator;\r\n    address public invited;\r\n\r\n    address public player1;\r\n    address public player2;\r\n\r\n    //0 for open square, 1 for \"O\", 2 for \"X\"\r\n    uint256[3][3] board;\r\n    mapping(uint256 => int256) winStates;\r\n    uint8 public moveCount;\r\n    address public winner;\r\n\r\n    event Invite(address indexed challenger, address indexed invited);\r\n    event InviteAccepted(address indexed invited);\r\n    event Move(\r\n        address indexed player,\r\n        uint256 indexed move,\r\n        uint256 row,\r\n        uint256 col\r\n    );\r\n    event Win(address indexed winner, uint256 move);\r\n    event Draw();\r\n\r\n    constructor(\r\n        address _challenger,\r\n        address _invited,\r\n        uint256 _gameID\r\n    ) {\r\n        ID = _gameID;\r\n        FACTORY = msg.sender;\r\n        creator = _challenger;\r\n        invited = _invited;\r\n        state = State.OPEN;\r\n\r\n        emit Invite(_challenger, _invited);\r\n    }\r\n\r\n    modifier isActive() {\r\n        require(\r\n            state == State.ACTIVE,\r\n            \"Game must be active to perform this action\"\r\n        );\r\n        _;\r\n    }\r\n\r\n    modifier isOpen() {\r\n        require(\r\n            state == State.OPEN,\r\n            \"Game must be open to perform this action\"\r\n        );\r\n        _;\r\n    }\r\n\r\n    function changeInvite(address _newInvited) external isOpen {\r\n        require(\r\n            msg.sender == creator,\r\n            \"Only creator can change invite address\"\r\n        );\r\n        require(invited != _newInvited, \"Player has already been invited\");\r\n\r\n        invited = _newInvited;\r\n\r\n        emit Invite(msg.sender, _newInvited);\r\n    }\r\n\r\n    function acceptInvite() external isOpen {\r\n        require(\r\n            msg.sender == invited,\r\n            \"You have not been invited to join this game\"\r\n        );\r\n\r\n        uint256 hashed = uint256(\r\n            keccak256(abi.encodePacked(creator, msg.sender))\r\n        );\r\n        hashed = hashed >> 255;\r\n        if (hashed == 0) {\r\n            player1 = creator;\r\n            player2 = invited;\r\n        } else {\r\n            player1 = invited;\r\n            player2 = creator;\r\n        }\r\n\r\n        state = State.ACTIVE;\r\n        TicTakToeFactory(FACTORY).setGameState(\r\n            ID,\r\n            TicTakToeFactory.State.ACTIVE\r\n        );\r\n\r\n        emit InviteAccepted(invited);\r\n    }\r\n\r\n    function move(uint256 row, uint256 col) external isActive {\r\n        require(\r\n            msg.sender == creator || msg.sender == invited,\r\n            \"Invalid player\"\r\n        );\r\n        require(row <= 2 && col <= 2, \"Invalid position\");\r\n        require(board[row][col] == 0, \"Position not empty\");\r\n\r\n        if (msg.sender == player1) {\r\n            require(moveCount % 2 != 0, \"Not your turn\");\r\n\r\n            board[row][col] = 1;\r\n            winStates[row]++;\r\n            winStates[col + 3]++;\r\n            if (row == col) {\r\n                winStates[6]++;\r\n            }\r\n            if (\r\n                (row == 0 && col == 2) ||\r\n                (row == 1 && col == 1) ||\r\n                (row == 2 && col == 0)\r\n            ) {\r\n                winStates[7]++;\r\n            }\r\n        } else {\r\n            require(moveCount % 2 == 0, \"Not your turn\");\r\n\r\n            board[row][col] = 2;\r\n            winStates[row]--;\r\n            winStates[col + 3]--;\r\n            if (row == col) {\r\n                winStates[6]--;\r\n            }\r\n            if (\r\n                (row == 0 && col == 2) ||\r\n                (row == 1 && col == 1) ||\r\n                (row == 2 && col == 0)\r\n            ) {\r\n                winStates[7]--;\r\n            }\r\n        }\r\n\r\n        moveCount++;\r\n        bool winningMove = _isWinningMove();\r\n\r\n        if (winningMove) {\r\n            winner = msg.sender;\r\n            state = State.CLOSED;\r\n            TicTakToeFactory(FACTORY).setGameState(\r\n                ID,\r\n                TicTakToeFactory.State.CLOSED\r\n            );\r\n        } else if (moveCount == 9) {\r\n            state = State.CLOSED;\r\n            TicTakToeFactory(FACTORY).setGameState(\r\n                ID,\r\n                TicTakToeFactory.State.CLOSED\r\n            );\r\n        }\r\n\r\n        emit Move(msg.sender, moveCount, row, col);\r\n\r\n        if (winningMove) {\r\n            emit Win(msg.sender, moveCount);\r\n        } else if (moveCount == 9) {\r\n            emit Draw();\r\n        }\r\n    }\r\n\r\n    function _isWinningMove() internal view returns (bool) {\r\n        for (uint256 i; i < 8; i++) {\r\n            if (winStates[i] == 3 || winStates[i] == -3) {\r\n                return true;\r\n            }\r\n        }\r\n        return false;\r\n    }\r\n}\r\n",
  "sourcePath": "C:\\Users\\damiel\\practice\\tic-tac-toe\\contracts\\TicTakToe.sol",
  "compiler": {
    "name": "solc",
    "version": "0.8.12+commit.f00d7308.Emscripten.clang"
  },
  "schemaVersion": "3.4.6",
  "updatedAt": "2022-04-10T20:00:51.408Z",
  "devdoc": {
    "kind": "dev",
    "methods": {},
    "version": 1
  },
  "userdoc": {
    "kind": "user",
    "methods": {},
    "version": 1
  }
}