{
  "contractName": "TicTakToeGame",
  "abi": [
    {
      "inputs": [
        {
          "internalType": "address",
          "name": "_challenger",
          "type": "address"
        },
        {
          "internalType": "address",
          "name": "_invited",
          "type": "address"
        },
        {
          "internalType": "uint256",
          "name": "_gameID",
          "type": "uint256"
        }
      ],
      "stateMutability": "nonpayable",
      "type": "constructor"
    },
    {
      "anonymous": false,
      "inputs": [],
      "name": "Draw",
      "type": "event"
    },
    {
      "anonymous": false,
      "inputs": [
        {
          "indexed": true,
          "internalType": "address",
          "name": "challenger",
          "type": "address"
        },
        {
          "indexed": true,
          "internalType": "address",
          "name": "invited",
          "type": "address"
        }
      ],
      "name": "Invite",
      "type": "event"
    },
    {
      "anonymous": false,
      "inputs": [
        {
          "indexed": true,
          "internalType": "address",
          "name": "invited",
          "type": "address"
        }
      ],
      "name": "InviteAccepted",
      "type": "event"
    },
    {
      "anonymous": false,
      "inputs": [
        {
          "indexed": true,
          "internalType": "address",
          "name": "player",
          "type": "address"
        },
        {
          "indexed": true,
          "internalType": "uint8",
          "name": "move",
          "type": "uint8"
        },
        {
          "indexed": false,
          "internalType": "uint8",
          "name": "row",
          "type": "uint8"
        },
        {
          "indexed": false,
          "internalType": "uint8",
          "name": "col",
          "type": "uint8"
        }
      ],
      "name": "Move",
      "type": "event"
    },
    {
      "anonymous": false,
      "inputs": [
        {
          "indexed": true,
          "internalType": "address",
          "name": "winner",
          "type": "address"
        },
        {
          "indexed": false,
          "internalType": "uint8",
          "name": "move",
          "type": "uint8"
        }
      ],
      "name": "Win",
      "type": "event"
    },
    {
      "inputs": [],
      "name": "FACTORY",
      "outputs": [
        {
          "internalType": "address",
          "name": "",
          "type": "address"
        }
      ],
      "stateMutability": "view",
      "type": "function"
    },
    {
      "inputs": [],
      "name": "ID",
      "outputs": [
        {
          "internalType": "uint256",
          "name": "",
          "type": "uint256"
        }
      ],
      "stateMutability": "view",
      "type": "function"
    },
    {
      "inputs": [],
      "name": "creator",
      "outputs": [
        {
          "internalType": "address",
          "name": "",
          "type": "address"
        }
      ],
      "stateMutability": "view",
      "type": "function"
    },
    {
      "inputs": [],
      "name": "invited",
      "outputs": [
        {
          "internalType": "address",
          "name": "",
          "type": "address"
        }
      ],
      "stateMutability": "view",
      "type": "function"
    },
    {
      "inputs": [],
      "name": "moveCount",
      "outputs": [
        {
          "internalType": "uint8",
          "name": "",
          "type": "uint8"
        }
      ],
      "stateMutability": "view",
      "type": "function"
    },
    {
      "inputs": [],
      "name": "player1",
      "outputs": [
        {
          "internalType": "address",
          "name": "",
          "type": "address"
        }
      ],
      "stateMutability": "view",
      "type": "function"
    },
    {
      "inputs": [],
      "name": "player2",
      "outputs": [
        {
          "internalType": "address",
          "name": "",
          "type": "address"
        }
      ],
      "stateMutability": "view",
      "type": "function"
    },
    {
      "inputs": [],
      "name": "state",
      "outputs": [
        {
          "internalType": "enum TicTakToeGame.State",
          "name": "",
          "type": "uint8"
        }
      ],
      "stateMutability": "view",
      "type": "function"
    },
    {
      "inputs": [],
      "name": "winner",
      "outputs": [
        {
          "internalType": "address",
          "name": "",
          "type": "address"
        }
      ],
      "stateMutability": "view",
      "type": "function"
    },
    {
      "inputs": [
        {
          "internalType": "address",
          "name": "_newInvited",
          "type": "address"
        }
      ],
      "name": "changeInvite",
      "outputs": [],
      "stateMutability": "nonpayable",
      "type": "function"
    },
    {
      "inputs": [],
      "name": "acceptInvite",
      "outputs": [],
      "stateMutability": "nonpayable",
      "type": "function"
    },
    {
      "inputs": [
        {
          "internalType": "uint8",
          "name": "row",
          "type": "uint8"
        },
        {
          "internalType": "uint8",
          "name": "col",
          "type": "uint8"
        }
      ],
      "name": "move",
      "outputs": [],
      "stateMutability": "nonpayable",
      "type": "function"
    }
  ],
  "bytecode": "0x60c06040523480156200001157600080fd5b50604051620021b0380380620021b083398181016040528101906200003791906200022a565b80608081815250503373ffffffffffffffffffffffffffffffffffffffff1660a08173ffffffffffffffffffffffffffffffffffffffff168152505082600060016101000a81548173ffffffffffffffffffffffffffffffffffffffff021916908373ffffffffffffffffffffffffffffffffffffffff16021790555081600160006101000a81548173ffffffffffffffffffffffffffffffffffffffff021916908373ffffffffffffffffffffffffffffffffffffffff16021790555060008060006101000a81548160ff021916908360028111156200011d576200011c62000286565b5b02179055508173ffffffffffffffffffffffffffffffffffffffff168373ffffffffffffffffffffffffffffffffffffffff167fa7f319d32ea1111130a0941caa632eb49779c9ca37820ae07e85f9f0ebbb51c860405160405180910390a3505050620002b5565b600080fd5b600073ffffffffffffffffffffffffffffffffffffffff82169050919050565b6000620001b7826200018a565b9050919050565b620001c981620001aa565b8114620001d557600080fd5b50565b600081519050620001e981620001be565b92915050565b6000819050919050565b6200020481620001ef565b81146200021057600080fd5b50565b6000815190506200022481620001f9565b92915050565b60008060006060848603121562000246576200024562000185565b5b60006200025686828701620001d8565b93505060206200026986828701620001d8565b92505060406200027c8682870162000213565b9150509250925092565b7f4e487b7100000000000000000000000000000000000000000000000000000000600052602160045260246000fd5b60805160a051611eab620003056000396000818161023101528181610cc501528181610dbd01526112de015260008181610d0101528181610df901528181610f86015261131a0152611eab6000f3fe608060405234801561001057600080fd5b50600436106100b45760003560e01c8063ba8f73e211610071578063ba8f73e214610169578063bbb4d3e914610187578063c19d93fb14610191578063d30895e4146101af578063dd503634146101cd578063dfbf53ae146101eb576100b4565b806302d05d3f146100b95780632dd31000146100d75780635458b231146100f557806359a5f12d14610111578063701bd9851461012f578063b3cea2171461014b575b600080fd5b6100c1610209565b6040516100ce9190611571565b60405180910390f35b6100df61022f565b6040516100ec9190611571565b60405180910390f35b61010f600480360381019061010a91906115bd565b610253565b005b610119610486565b6040516101269190611571565b60405180910390f35b61014960048036038101906101449190611623565b6104ac565b005b610153610f84565b604051610160919061167c565b60405180910390f35b610171610fa8565b60405161017e91906116a6565b60405180910390f35b61018f610fbb565b005b6101996113f2565b6040516101a69190611738565b60405180910390f35b6101b7611403565b6040516101c49190611571565b60405180910390f35b6101d5611429565b6040516101e29190611571565b60405180910390f35b6101f361144f565b6040516102009190611571565b60405180910390f35b600060019054906101000a900473ffffffffffffffffffffffffffffffffffffffff1681565b7f000000000000000000000000000000000000000000000000000000000000000081565b60006002811115610267576102666116c1565b5b60008054906101000a900460ff166002811115610287576102866116c1565b5b146102c7576040517f08c379a00000000000000000000000000000000000000000000000000000000081526004016102be906117d6565b60405180910390fd5b600060019054906101000a900473ffffffffffffffffffffffffffffffffffffffff1673ffffffffffffffffffffffffffffffffffffffff163373ffffffffffffffffffffffffffffffffffffffff1614610357576040517f08c379a000000000000000000000000000000000000000000000000000000000815260040161034e90611868565b60405180910390fd5b8073ffffffffffffffffffffffffffffffffffffffff16600160009054906101000a900473ffffffffffffffffffffffffffffffffffffffff1673ffffffffffffffffffffffffffffffffffffffff1614156103e8576040517f08c379a00000000000000000000000000000000000000000000000000000000081526004016103df906118d4565b60405180910390fd5b80600160006101000a81548173ffffffffffffffffffffffffffffffffffffffff021916908373ffffffffffffffffffffffffffffffffffffffff1602179055508073ffffffffffffffffffffffffffffffffffffffff163373ffffffffffffffffffffffffffffffffffffffff167fa7f319d32ea1111130a0941caa632eb49779c9ca37820ae07e85f9f0ebbb51c860405160405180910390a350565b600360009054906101000a900473ffffffffffffffffffffffffffffffffffffffff1681565b600160028111156104c0576104bf6116c1565b5b60008054906101000a900460ff1660028111156104e0576104df6116c1565b5b14610520576040517f08c379a000000000000000000000000000000000000000000000000000000000815260040161051790611966565b60405180910390fd5b600060019054906101000a900473ffffffffffffffffffffffffffffffffffffffff1673ffffffffffffffffffffffffffffffffffffffff163373ffffffffffffffffffffffffffffffffffffffff1614806105c95750600160009054906101000a900473ffffffffffffffffffffffffffffffffffffffff1673ffffffffffffffffffffffffffffffffffffffff163373ffffffffffffffffffffffffffffffffffffffff16145b610608576040517f08c379a00000000000000000000000000000000000000000000000000000000081526004016105ff906119d2565b60405180910390fd5b60028260ff1611158015610620575060028160ff1611155b61065f576040517f08c379a000000000000000000000000000000000000000000000000000000000815260040161065690611a3e565b60405180910390fd5b600060048360ff166003811061067857610677611a5e565b5b018260ff166003811061068e5761068d611a5e565b5b602091828204019190069054906101000a900460ff1660ff16146106e7576040517f08c379a00000000000000000000000000000000000000000000000000000000081526004016106de90611ad9565b60405180910390fd5b600260009054906101000a900473ffffffffffffffffffffffffffffffffffffffff1673ffffffffffffffffffffffffffffffffffffffff163373ffffffffffffffffffffffffffffffffffffffff1614156109a85760006002600860009054906101000a900460ff1661075b9190611b28565b60ff16141561079f576040517f08c379a000000000000000000000000000000000000000000000000000000000815260040161079690611ba5565b60405180910390fd5b600160048360ff16600381106107b8576107b7611a5e565b5b018260ff16600381106107ce576107cd611a5e565b5b602091828204019190066101000a81548160ff021916908360ff160217905550600760008360ff1660ff168152602001908152602001600020600081819054906101000a900460000b8092919061082490611c01565b91906101000a81548160ff021916908360000b60ff16021790555050600760006003836108519190611c2b565b60ff1660ff168152602001908152602001600020600081819054906101000a900460000b8092919061088290611c01565b91906101000a81548160ff021916908360000b60ff160217905550508060ff168260ff1614156108fd5760076000600660ff168152602001908152602001600020600081819054906101000a900460000b809291906108e090611c01565b91906101000a81548160ff021916908360000b60ff160217905550505b60008260ff16148015610913575060028160ff16145b80610930575060018260ff1614801561092f575060018160ff16145b5b8061094d575060028260ff1614801561094c575060008160ff16145b5b156109a35760076000600760ff168152602001908152602001600020600081819054906101000a900460000b8092919061098690611c01565b91906101000a81548160ff021916908360000b60ff160217905550505b610c0e565b60006002600860009054906101000a900460ff166109c69190611b28565b60ff1614610a09576040517f08c379a0000000000000000000000000000000000000000000000000000000008152600401610a0090611ba5565b60405180910390fd5b600260048360ff1660038110610a2257610a21611a5e565b5b018260ff1660038110610a3857610a37611a5e565b5b602091828204019190066101000a81548160ff021916908360ff160217905550600760008360ff1660ff168152602001908152602001600020600081819054906101000a900460000b80929190610a8e90611c62565b91906101000a81548160ff021916908360000b60ff1602179055505060076000600383610abb9190611c2b565b60ff1660ff168152602001908152602001600020600081819054906101000a900460000b80929190610aec90611c62565b91906101000a81548160ff021916908360000b60ff160217905550508060ff168260ff161415610b675760076000600660ff168152602001908152602001600020600081819054906101000a900460000b80929190610b4a90611c62565b91906101000a81548160ff021916908360000b60ff160217905550505b60008260ff16148015610b7d575060028160ff16145b80610b9a575060018260ff16148015610b99575060018160ff16145b5b80610bb7575060028260ff16148015610bb6575060008160ff16145b5b15610c0d5760076000600760ff168152602001908152602001600020600081819054906101000a900460000b80929190610bf090611c62565b91906101000a81548160ff021916908360000b60ff160217905550505b5b6008600081819054906101000a900460ff1680929190610c2d90611cab565b91906101000a81548160ff021916908360ff160217905550506000610c50611475565b90508015610d765733600860016101000a81548173ffffffffffffffffffffffffffffffffffffffff021916908373ffffffffffffffffffffffffffffffffffffffff16021790555060026000806101000a81548160ff02191690836002811115610cbe57610cbd6116c1565b5b02179055507f000000000000000000000000000000000000000000000000000000000000000073ffffffffffffffffffffffffffffffffffffffff1663393e6e897f000000000000000000000000000000000000000000000000000000000000000060026040518363ffffffff1660e01b8152600401610d3f929190611d1d565b600060405180830381600087803b158015610d5957600080fd5b505af1158015610d6d573d6000803e3d6000fd5b50505050610e6b565b6009600860009054906101000a900460ff1660ff161415610e6a5760026000806101000a81548160ff02191690836002811115610db657610db56116c1565b5b02179055507f000000000000000000000000000000000000000000000000000000000000000073ffffffffffffffffffffffffffffffffffffffff1663393e6e897f000000000000000000000000000000000000000000000000000000000000000060026040518363ffffffff1660e01b8152600401610e37929190611d1d565b600060405180830381600087803b158015610e5157600080fd5b505af1158015610e65573d6000803e3d6000fd5b505050505b5b600860009054906101000a900460ff1660ff163373ffffffffffffffffffffffffffffffffffffffff167f2826e355108c3b0f77e05c1e1c6a4fe12e7327ba47a356a30bcd24199b36bd238585604051610ec6929190611d46565b60405180910390a38015610f36573373ffffffffffffffffffffffffffffffffffffffff167fb942c50a8b2790ad8b4d169c9d2987f3d3ab7c668a9c939758131931a63ed65b600860009054906101000a900460ff16604051610f2991906116a6565b60405180910390a2610f7f565b6009600860009054906101000a900460ff1660ff161415610f7e577fd4e78272079f47a2dd45d8f7092ff3a44f8abfcaeb43c35f8f96e14d610dc8fc60405160405180910390a15b5b505050565b7f000000000000000000000000000000000000000000000000000000000000000081565b600860009054906101000a900460ff1681565b60006002811115610fcf57610fce6116c1565b5b60008054906101000a900460ff166002811115610fef57610fee6116c1565b5b1461102f576040517f08c379a0000000000000000000000000000000000000000000000000000000008152600401611026906117d6565b60405180910390fd5b600160009054906101000a900473ffffffffffffffffffffffffffffffffffffffff1673ffffffffffffffffffffffffffffffffffffffff163373ffffffffffffffffffffffffffffffffffffffff16146110bf576040517f08c379a00000000000000000000000000000000000000000000000000000000081526004016110b690611de1565b60405180910390fd5b60008060019054906101000a900473ffffffffffffffffffffffffffffffffffffffff16336040516020016110f5929190611e49565b6040516020818303038152906040528051906020012060001c905060ff81901c905060008114156111eb57600060019054906101000a900473ffffffffffffffffffffffffffffffffffffffff16600260006101000a81548173ffffffffffffffffffffffffffffffffffffffff021916908373ffffffffffffffffffffffffffffffffffffffff160217905550600160009054906101000a900473ffffffffffffffffffffffffffffffffffffffff16600360006101000a81548173ffffffffffffffffffffffffffffffffffffffff021916908373ffffffffffffffffffffffffffffffffffffffff1602179055506112b2565b600160009054906101000a900473ffffffffffffffffffffffffffffffffffffffff16600260006101000a81548173ffffffffffffffffffffffffffffffffffffffff021916908373ffffffffffffffffffffffffffffffffffffffff160217905550600060019054906101000a900473ffffffffffffffffffffffffffffffffffffffff16600360006101000a81548173ffffffffffffffffffffffffffffffffffffffff021916908373ffffffffffffffffffffffffffffffffffffffff1602179055505b60016000806101000a81548160ff021916908360028111156112d7576112d66116c1565b5b02179055507f000000000000000000000000000000000000000000000000000000000000000073ffffffffffffffffffffffffffffffffffffffff1663393e6e897f000000000000000000000000000000000000000000000000000000000000000060016040518363ffffffff1660e01b8152600401611358929190611d1d565b600060405180830381600087803b15801561137257600080fd5b505af1158015611386573d6000803e3d6000fd5b50505050600160009054906101000a900473ffffffffffffffffffffffffffffffffffffffff1673ffffffffffffffffffffffffffffffffffffffff167f9015e4f6466f7637abde08c3b1c9b84a9763d208f3425df33103ee21ab28480160405160405180910390a250565b60008054906101000a900460ff1681565b600260009054906101000a900473ffffffffffffffffffffffffffffffffffffffff1681565b600160009054906101000a900473ffffffffffffffffffffffffffffffffffffffff1681565b600860019054906101000a900473ffffffffffffffffffffffffffffffffffffffff1681565b6000805b60088160ff161015611527576003600760008360ff1660ff16815260200190815260200160002060009054906101000a900460000b60000b148061150557507ffffffffffffffffffffffffffffffffffffffffffffffffffffffffffffffffd600760008360ff1660ff16815260200190815260200160002060009054906101000a900460000b60000b145b1561151457600191505061152d565b808061151f90611cab565b915050611479565b50600090505b90565b600073ffffffffffffffffffffffffffffffffffffffff82169050919050565b600061155b82611530565b9050919050565b61156b81611550565b82525050565b60006020820190506115866000830184611562565b92915050565b600080fd5b61159a81611550565b81146115a557600080fd5b50565b6000813590506115b781611591565b92915050565b6000602082840312156115d3576115d261158c565b5b60006115e1848285016115a8565b91505092915050565b600060ff82169050919050565b611600816115ea565b811461160b57600080fd5b50565b60008135905061161d816115f7565b92915050565b6000806040838503121561163a5761163961158c565b5b60006116488582860161160e565b92505060206116598582860161160e565b9150509250929050565b6000819050919050565b61167681611663565b82525050565b6000602082019050611691600083018461166d565b92915050565b6116a0816115ea565b82525050565b60006020820190506116bb6000830184611697565b92915050565b7f4e487b7100000000000000000000000000000000000000000000000000000000600052602160045260246000fd5b60038110611701576117006116c1565b5b50565b6000819050611712826116f0565b919050565b600061172282611704565b9050919050565b61173281611717565b82525050565b600060208201905061174d6000830184611729565b92915050565b600082825260208201905092915050565b7f47616d65206d757374206265206f70656e20746f20706572666f726d2074686960008201527f7320616374696f6e000000000000000000000000000000000000000000000000602082015250565b60006117c0602883611753565b91506117cb82611764565b604082019050919050565b600060208201905081810360008301526117ef816117b3565b9050919050565b7f4f6e6c792063726561746f722063616e206368616e676520696e76697465206160008201527f6464726573730000000000000000000000000000000000000000000000000000602082015250565b6000611852602683611753565b915061185d826117f6565b604082019050919050565b6000602082019050818103600083015261188181611845565b9050919050565b7f506c617965722068617320616c7265616479206265656e20696e766974656400600082015250565b60006118be601f83611753565b91506118c982611888565b602082019050919050565b600060208201905081810360008301526118ed816118b1565b9050919050565b7f47616d65206d7573742062652061637469766520746f20706572666f726d207460008201527f68697320616374696f6e00000000000000000000000000000000000000000000602082015250565b6000611950602a83611753565b915061195b826118f4565b604082019050919050565b6000602082019050818103600083015261197f81611943565b9050919050565b7f496e76616c696420706c61796572000000000000000000000000000000000000600082015250565b60006119bc600e83611753565b91506119c782611986565b602082019050919050565b600060208201905081810360008301526119eb816119af565b9050919050565b7f496e76616c696420706f736974696f6e00000000000000000000000000000000600082015250565b6000611a28601083611753565b9150611a33826119f2565b602082019050919050565b60006020820190508181036000830152611a5781611a1b565b9050919050565b7f4e487b7100000000000000000000000000000000000000000000000000000000600052603260045260246000fd5b7f506f736974696f6e206e6f7420656d7074790000000000000000000000000000600082015250565b6000611ac3601283611753565b9150611ace82611a8d565b602082019050919050565b60006020820190508181036000830152611af281611ab6565b9050919050565b7f4e487b7100000000000000000000000000000000000000000000000000000000600052601260045260246000fd5b6000611b33826115ea565b9150611b3e836115ea565b925082611b4e57611b4d611af9565b5b828206905092915050565b7f4e6f7420796f7572207475726e00000000000000000000000000000000000000600082015250565b6000611b8f600d83611753565b9150611b9a82611b59565b602082019050919050565b60006020820190508181036000830152611bbe81611b82565b9050919050565b7f4e487b7100000000000000000000000000000000000000000000000000000000600052601160045260246000fd5b60008160000b9050919050565b6000611c0c82611bf4565b9150607f821415611c2057611c1f611bc5565b5b600182019050919050565b6000611c36826115ea565b9150611c41836115ea565b92508260ff03821115611c5757611c56611bc5565b5b828201905092915050565b6000611c6d82611bf4565b91507fffffffffffffffffffffffffffffffffffffffffffffffffffffffffffffff80821415611ca057611c9f611bc5565b5b600182039050919050565b6000611cb6826115ea565b915060ff821415611cca57611cc9611bc5565b5b600182019050919050565b60038110611ce657611ce56116c1565b5b50565b6000819050611cf782611cd5565b919050565b6000611d0782611ce9565b9050919050565b611d1781611cfc565b82525050565b6000604082019050611d32600083018561166d565b611d3f6020830184611d0e565b9392505050565b6000604082019050611d5b6000830185611697565b611d686020830184611697565b9392505050565b7f596f752068617665206e6f74206265656e20696e766974656420746f206a6f6960008201527f6e20746869732067616d65000000000000000000000000000000000000000000602082015250565b6000611dcb602b83611753565b9150611dd682611d6f565b604082019050919050565b60006020820190508181036000830152611dfa81611dbe565b9050919050565b60008160601b9050919050565b6000611e1982611e01565b9050919050565b6000611e2b82611e0e565b9050919050565b611e43611e3e82611550565b611e20565b82525050565b6000611e558285611e32565b601482019150611e658284611e32565b601482019150819050939250505056fea26469706673582212207302b123ca010d117da2fdfaeab1bbaefc2da6f54c9dd583de49fed7fb5d12bb64736f6c634300080c0033",
  "immutableReferences": {
    "143": [
      {
        "length": 32,
        "start": 3329
      },
      {
        "length": 32,
        "start": 3577
      },
      {
        "length": 32,
        "start": 3974
      },
      {
        "length": 32,
        "start": 4890
      }
    ],
    "145": [
      {
        "length": 32,
        "start": 561
      },
      {
        "length": 32,
        "start": 3269
      },
      {
        "length": 32,
        "start": 3517
      },
      {
        "length": 32,
        "start": 4830
      }
    ]
  },
  "source": "pragma solidity ^0.8.0;\r\n\r\n/* This contract implements a factory contract that can be used by anyone to\r\n * create a new TicTakToe game. This contract keeps a mapping with all the\r\n * games including the state, address, and creator for each game.\r\n */\r\ncontract TicTakToeFactory {\r\n    //enum for game state\r\n    enum State {\r\n        OPEN,\r\n        ACTIVE,\r\n        CLOSED\r\n    }\r\n    struct Game {\r\n        address gameAddress;\r\n        address creator;\r\n        State gameState;\r\n    }\r\n    mapping(uint256 => Game) public directory;\r\n    uint256 public numGames;\r\n\r\n    //event emitted when new game is created\r\n    event NewGame(\r\n        address indexed creator,\r\n        address indexed gameAddress,\r\n        uint256 gameID\r\n    );\r\n\r\n    /* Function to create a new game, can be called by any external address, caller\r\n     * must pass in the address of the player they wish to invite to the game.\r\n     */\r\n    function createGame(address _toChallenge) external {\r\n        require(msg.sender != _toChallenge, \"You cannot challenge yourself\");\r\n\r\n        //deploy new game contract\r\n        address createdAddress = address(\r\n            new TicTakToeGame(msg.sender, _toChallenge, numGames)\r\n        );\r\n\r\n        //store new game in mapping with game address, creator, and initial state\r\n        directory[numGames] = Game(createdAddress, msg.sender, State.OPEN);\r\n        numGames++;\r\n\r\n        emit NewGame(msg.sender, createdAddress, numGames - 1);\r\n    }\r\n\r\n    /* Function to update the state of a game within the mapping. This function\r\n     * can only be invoked by the game contract itself.\r\n     */\r\n    function setGameState(uint256 _gameID, State _newState) external {\r\n        require(\r\n            msg.sender == directory[_gameID].gameAddress,\r\n            \"Only game itself can update its state\"\r\n        );\r\n\r\n        directory[_gameID].gameState = _newState;\r\n    }\r\n}\r\n\r\n/* This contract implements the TicTakToe game itself. It contains external functions\r\n * to change the invite address, accept an invitation to the game, and to perform\r\n * a move on the TicTakToe board.\r\n */\r\ncontract TicTakToeGame {\r\n    //game ID\r\n    uint256 public immutable ID;\r\n    //address of factory contract\r\n    address public immutable FACTORY;\r\n\r\n    //enum for game state\r\n    enum State {\r\n        OPEN,\r\n        ACTIVE,\r\n        CLOSED\r\n    }\r\n    State public state;\r\n\r\n    address public creator;\r\n    address public invited;\r\n\r\n    address public player1;\r\n    address public player2;\r\n\r\n    //TicTakToe board - 0 for open square, 1 for \"O\", 2 for \"X\"\r\n    uint8[3][3] board;\r\n\r\n    /* Mapping representing win states - the TikTakToe game has 8 possible win\r\n     * states, every time an \"O\" is added to a possible win state, add 1 to the\r\n     * win state ID in the mapping and every time an \"X\" is added to a possible\r\n     * win state, subtract 1 from the win state ID in the mapping.\r\n     */\r\n    mapping(uint8 => int8) winStates;\r\n\r\n    uint8 public moveCount;\r\n    address public winner;\r\n\r\n    //event emitted when address is invited to the game\r\n    event Invite(address indexed challenger, address indexed invited);\r\n\r\n    //event emitted when player accepts invite to the game\r\n    event InviteAccepted(address indexed invited);\r\n\r\n    //event emitted to indicate a move made in the game\r\n    event Move(\r\n        address indexed player,\r\n        uint8 indexed move,\r\n        uint8 row,\r\n        uint8 col\r\n    );\r\n\r\n    //event emitted when player has won the game\r\n    event Win(address indexed winner, uint8 move);\r\n\r\n    //event emitted when the game ends in a draw\r\n    event Draw();\r\n\r\n    //constructor takes in the challenger, invited address, and game ID\r\n    constructor(\r\n        address _challenger,\r\n        address _invited,\r\n        uint256 _gameID\r\n    ) {\r\n        ID = _gameID;\r\n        FACTORY = msg.sender;\r\n\r\n        creator = _challenger;\r\n        invited = _invited;\r\n        state = State.OPEN;\r\n\r\n        emit Invite(_challenger, _invited);\r\n    }\r\n\r\n    //modifier to ensure game is in Active state\r\n    modifier isActive() {\r\n        require(\r\n            state == State.ACTIVE,\r\n            \"Game must be active to perform this action\"\r\n        );\r\n        _;\r\n    }\r\n\r\n    //modifier to ensure game is in Open state\r\n    modifier isOpen() {\r\n        require(\r\n            state == State.OPEN,\r\n            \"Game must be open to perform this action\"\r\n        );\r\n        _;\r\n    }\r\n\r\n    /* Function to change the invite address. This can only be done when the game\r\n     * state is open meaning that no one has accepted the invitation yet. Only\r\n     * the creator of the game can change the invited address.\r\n     */\r\n    function changeInvite(address _newInvited) external isOpen {\r\n        require(\r\n            msg.sender == creator,\r\n            \"Only creator can change invite address\"\r\n        );\r\n        require(invited != _newInvited, \"Player has already been invited\");\r\n\r\n        invited = _newInvited;\r\n\r\n        emit Invite(msg.sender, _newInvited);\r\n    }\r\n\r\n    /* Function to accept an invitation to the game. This function can only be\r\n     * invoked when the game is still open. Additionally, only the invited address\r\n     * can accept the game invitation.\r\n     */\r\n    function acceptInvite() external isOpen {\r\n        require(\r\n            msg.sender == invited,\r\n            \"You have not been invited to join this game\"\r\n        );\r\n\r\n        //compute the hash of the concatenated player addresses and cast to uint256\r\n        uint256 hashed = uint256(\r\n            keccak256(abi.encodePacked(creator, msg.sender))\r\n        );\r\n\r\n        //get first bit of the hash\r\n        hashed = hashed >> 255;\r\n\r\n        //if first bit is 0, creator is \"O\" and invited is \"X\", and vice versa\r\n        if (hashed == 0) {\r\n            player1 = creator;\r\n            player2 = invited;\r\n        } else {\r\n            player1 = invited;\r\n            player2 = creator;\r\n        }\r\n\r\n        //set game state to active in this contract and in Factory contract\r\n        state = State.ACTIVE;\r\n        TicTakToeFactory(FACTORY).setGameState(\r\n            ID,\r\n            TicTakToeFactory.State.ACTIVE\r\n        );\r\n\r\n        emit InviteAccepted(invited);\r\n    }\r\n\r\n    /* Function representing a move in the TicTakToe game. This function can only\r\n     * be invoked by a valid player of the game while the game is in the Active\r\n     * state. At the end of every move, this function checks for either a winner\r\n     * or a draw.\r\n     */\r\n    function move(uint8 row, uint8 col) external isActive {\r\n        require(\r\n            msg.sender == creator || msg.sender == invited,\r\n            \"Invalid player\"\r\n        );\r\n        require(row <= 2 && col <= 2, \"Invalid position\");\r\n        require(board[row][col] == 0, \"Position not empty\");\r\n\r\n        //player 1 plays \"O\"\r\n        if (msg.sender == player1) {\r\n            //player 1 goes second (moveCount must be odd because it starts at 0)\r\n            require(moveCount % 2 != 0, \"Not your turn\");\r\n\r\n            //\"O\" is represented by 1\r\n            board[row][col] = 1;\r\n\r\n            //update row and column win states (increment for \"O\")\r\n            winStates[row]++;\r\n            winStates[col + 3]++;\r\n\r\n            //update diagonal win states if they apply\r\n            if (row == col) {\r\n                winStates[6]++;\r\n            }\r\n            if (\r\n                (row == 0 && col == 2) ||\r\n                (row == 1 && col == 1) ||\r\n                (row == 2 && col == 0)\r\n            ) {\r\n                winStates[7]++;\r\n            }\r\n        } else {\r\n            //player 2 goes first (moveCount must be even because it starts at 0)\r\n            require(moveCount % 2 == 0, \"Not your turn\");\r\n\r\n            //\"X\" is represented by 2\r\n            board[row][col] = 2;\r\n\r\n            //update row and column win states (decrement for \"X\")\r\n            winStates[row]--;\r\n            winStates[col + 3]--;\r\n\r\n            //update diagonal win states if they apply\r\n            if (row == col) {\r\n                winStates[6]--;\r\n            }\r\n            if (\r\n                (row == 0 && col == 2) ||\r\n                (row == 1 && col == 1) ||\r\n                (row == 2 && col == 0)\r\n            ) {\r\n                winStates[7]--;\r\n            }\r\n        }\r\n\r\n        moveCount++;\r\n\r\n        //check if this move is a winning move\r\n        bool winningMove = _isWinningMove();\r\n\r\n        //if this move is a winning move\r\n        if (winningMove) {\r\n            winner = msg.sender;\r\n\r\n            //set game state to Closed in this contract and in Factory contract\r\n            state = State.CLOSED;\r\n            TicTakToeFactory(FACTORY).setGameState(\r\n                ID,\r\n                TicTakToeFactory.State.CLOSED\r\n            );\r\n            //if it is not a winning move, but 9 moves have been made, it is a draw\r\n        } else if (moveCount == 9) {\r\n            //set game state to Closed in this contract and in Factory contract\r\n            state = State.CLOSED;\r\n            TicTakToeFactory(FACTORY).setGameState(\r\n                ID,\r\n                TicTakToeFactory.State.CLOSED\r\n            );\r\n        }\r\n\r\n        emit Move(msg.sender, moveCount, row, col);\r\n\r\n        //conditionally emit Win and Draw events\r\n        if (winningMove) {\r\n            emit Win(msg.sender, moveCount);\r\n        } else if (moveCount == 9) {\r\n            emit Draw();\r\n        }\r\n    }\r\n\r\n    /* Internal function to determine whether or not a move is a winning move.\r\n     * Function checks all 8 win states and returns true if any have a value of\r\n     * 3 (player 1 wins) or -3 (player 2 wins).\r\n     */\r\n    function _isWinningMove() internal view returns (bool) {\r\n        //iterate through all 8 win states\r\n        for (uint8 i; i < 8; i++) {\r\n            if (winStates[i] == 3 || winStates[i] == -3) {\r\n                return true;\r\n            }\r\n        }\r\n        return false;\r\n    }\r\n}\r\n",
  "sourcePath": "C:\\Users\\damiel\\practice\\tic-tac-toe\\contracts\\TicTakToe.sol",
  "compiler": {
    "name": "solc",
    "version": "0.8.12+commit.f00d7308.Emscripten.clang"
  },
  "schemaVersion": "3.4.6",
  "updatedAt": "2022-04-12T06:22:19.107Z",
  "devdoc": {
    "kind": "dev",
    "methods": {},
    "version": 1
  },
  "userdoc": {
    "kind": "user",
    "methods": {},
    "version": 1
  }
}